:020000040800F2
:10000000A81F0224B9030008510D0008410D000883
:10001000490D0008810C000859120008000000007A
:10002000000000000000000000000000D10D0008EA
:10003000890C000800000000610D0008290E00086E
:10004000E5030008E5030008E5030008E5030008F0
:10005000E5030008E5030008E5030008E5030008E0
:10006000E5030008E5030008E5030008E5030008D0
:10007000E5030008E5030008E5030008E5030008C0
:10008000E5030008E5030008E503000800000000A0
:10009000000000000000000000000000E503000870
:1000A000E5030008E5030008E5030008E503000890
:1000B000E5030008E5030008E5030008E503000880
:1000C000E5030008E5030008E5030008E503000870
:1000D000E503000831120008E5030008E503000805
:1000E000E5030008E503000800000000E503000840
:1000F000E5030008E5030008E5030008E503000840
:10010000E5030008E5030008E5030008E50300082F
:10011000E5030008E5030008E5030008E50300081F
:10012000E5030008E5030008E5030008E50300080F
:10013000E5030008910C0008E5030008000000003A
:1001400000000000000000000000000000000000AF
:10015000E5030008E5030008E5030008E5030008DF
:10016000E5030008E5030008E5030008E5030008CF
:10017000E5030008E5030008E5030008E5030008BF
:10018000E5030008F90C0008E5030008E503000892
:10019000E5030008E5030008E5030008E50300089F
:1001A000E5030008E5030008E5030008E50300088F
:1001B000E50300080000000000000000E50300085F
:1001C000E5030008E503000800000000000000004F
:1001D0000000000000000000E5030008000000002F
:1001E000000000000000000000000000000000000F
:1001F0000000000000000000E5030008E50300081F
:10020000E5030008E5030008E5030008000000001E
:10021000E5030008E5030008E5030008000000000E
:10022000E503000800000000E503000800000000EE
:10023000E5030008E503000800000000E5030008EE
:1002400000000000000000000000000000000000AE
:10025000000000000000000000000000000000009E
:1002600000000000E503000800000000000000009E
:10027000000000000000000000000000000000007E
:10028000E5030008E503000800000000000000008E
:100290000000000000000000E5030008E50300087E
:1002A000E5030008E5030008E5030008000000007E
:1002B000000000000000000000000000000000003E
:1002C00000000000E5030008E5030008E50300085E
:1002D000E5030008E5030008E5030008E50300085E
:1002E000E5030008E5030008E5030008E50300084E
:1002F000E5030008E5030008E5030008E50300083E
:10030000E5030008E503000800000000E50300081D
:10031000E5030008E5030008E5030008E50300081D
:10032000E5030008E5030008E5030008E50300080D
:10033000E5030008E5030008E5030008E5030008FD
:10034000E5030008E5030008E5030008E5030008ED
:10035000E5030008E5030008E5030008E5030008DD
:10036000E5030008E5030008E5030008E5030008CD
:10037000E5030008E5030008E5030008E5030008BD
:10038000E5030008E5030008E5030008E5030008AD
:10039000E5030008E5030008E5030008E50300089D
:1003A000E5030008DFF80CD000F050FB00480047E0
:1003B000A17B0008A81F02240B4800F500414FF064
:1003C0000002E0E802228842FBD108488047084842
:1003D0000047FEE7FEE7FEE7FEE7FEE7FEE7FEE793
:1003E000FEE7FEE7FEE7000000000024410E0008E3
:1003F000A50300082DE9F05F0546002092469B46C4
:1004000088460646814640241BE02846414647462A
:10041000224600F01BF953465A46C01A914110D3A8
:1004200011461846224600F002F92D1A67EB010822
:100430004F4622460120002100F0F9F817EB000991
:100440004E41201EA4F10104DFDC484631462A4615
:100450004346BDE8F09F00000048704708260108A9
:100460000649074A0868504343F2390210440860BD
:1004700040087047014908607047000004000024EC
:100480006D4EC64110B5431A934209D2831888189D
:1004900003E010F8011D03F8011D521EF9D210BD32
:1004A00040EA01039B0703D009E008C9121F08C0F6
:1004B000042AFAD203E011F8013B00F8013B521E76
:1004C000F9D210BDD2B201E000F8012B491EFBD2D7
:1004D00070470022F6E710B513460A46044619464F
:1004E000FFF7F0FF204610BD30B50446002003465C
:1004F00000E05B1C934203D2E05CCD5C401BF8D073
:1005000030BD000007280FD2DFE800F00406080E17
:100510000E0C0A0005A070470AA0704713A0704790
:100520001DA0704722A070472BA070474E6F20651A
:1005300072726F7220286572726E6F203D203029B2
:100540000000000045444F4D202D2066756E6374F9
:10055000696F6E20617267756D656E74206F75745A
:10056000206F662072616E67650000004552414E43
:100570004745202D2066756E6374696F6E20726525
:1005800073756C74206E6F7420726570726573651C
:100590006E7461626C650000454E4F4D454D202DD7
:1005A000206F7574206F66206D656D6F7279000025
:1005B00045494E56414C202D20696E76616C696428
:1005C00020617267756D656E7420746F2066756E3C
:1005D0006374696F6E000000556E6B6E6F776E20EE
:1005E0006572726F7200000070B5064611F032FB42
:1005F000046805460A220021304600F037F82C60D6
:1006000070BD30B50B46014600202022012409E0D0
:1006100021FA02F59D4205D303FA02F5491B04FABB
:1006200002F52844151EA2F10102F1DC30BD202A9A
:1006300004DB203A00FA02F1002070479140C2F139
:10064000200320FA03F3194390407047202A04DB6B
:10065000203A21FA02F00021704721FA02F3D0403B
:10066000C2F1200291400843194670472DE9F04736
:1006700091460F4680460446002614F8015B2DB1D2
:10068000FFF7EAFE0068405DC007F6D12B2D02D0CF
:100690002D2D18D0641E4A463946204600F0FAF93E
:1006A00027B13968A14201D1C7F8008071054FF028
:1006B00002040BD54042002803DD11F0CBFA0460A0
:1006C000A007BDE8F08746F48066E4E70028F8DA82
:1006D00011F0C0FA04606FF00040F2E72DE9FE4F20
:1006E000804681EA0300C00F0C46009021F00041D3
:1006F00023F00045B8EB0200A94105D2404621464F
:1007000090461C460B46024623F00040104347D05B
:10071000270DC7F30A00C3F30A510290401A019053
:1007200040286BDAC3F3130040F4801B0098924614
:1007300020B10023D2EB030A63EB0B0B019859465F
:10074000C0F140025046FFF772FF06460D46504684
:100750005946019A00F08CF910EB08006141002421
:1007600087EA115284EAE7731A4340D0009A62B3D1
:10077000019A012A4FEA075215DC001B61EB0201C6
:100780004FF0004202EA0752CDE90042001C41F559
:10079000801132462B4600F0DBF903B0BDE8F08F44
:1007A00040462146F9E7001B61EB0201001C41F5C0
:1007B000801300185B412018A2F5001747EB0301D6
:1007C00040EAD570B6196D4111E06D084FEA360662
:1007D00045EAC0754FEA0752001B61EB0201001C9D
:1007E00041F5801149084FEA300000195141324665
:1007F0002B4603B0BDE8F04F00F09BB900980122F2
:1008000040000023D0EB020263EBE0730098214626
:100810004FEAE074B8EB000061EB0401E9E783F014
:1008200000435BE781F0004158E72DE9FE4F81EA84
:10083000030404F0004421F0004100944FF0000B49
:1008400023F0004350EA01045ED052EA03045BD077
:10085000C3F30A54C1F30A552C44A4F2F3340194AF
:10086000A0FB0254C1F3130141F48011C3F313033D
:1008700043F4801301FB024400FB034E840A970AF1
:1008800044EA815447EA8357A4FB076802958D0A1E
:1008900005FB07854FEA932C04FB0C542705029DAA
:1008A0004FEA065847EA1637B5EB08056EEB070C1A
:1008B000870E920E47EA811742EA8312A7FB0201D4
:1008C000B6EB0B0164EB00042B0D43EA0C335E180E
:1008D00044EB1C50DA465146E7FB0201C5F3130412
:1008E0004FEA0B3343EA14534FEA0432019C43EAC4
:1008F0000603A4F10C040294009CCDE900B400F0BE
:1009000027F903B0BDE8F08F00200146F9E72DE993
:10091000F04D81EA030404F0004B21F00045144639
:100920004FF0000A23F0004150EA050220D054EABB
:1009300001021DD0C5F30A570246C5F31303C1F3E4
:100940001300C1F30A5640F4801543F48013A7EB5B
:100950000608101BD64608F2FD3873EB050002D3DB
:1009600008F1010801E092185B41B8F1000F03DAC9
:1009700000200146BDE8F08D00204FF480110646AE
:1009800084460EE0171B73EB050705D3121B63EBC0
:10099000050306434CEA010C49084FEA300092185F
:1009A0005B4150EA0107EDD152EA030012D082EA1E
:1009B000040083EA0501084305D0101BAB4106D2B1
:1009C0000122002306E000224FF0004302E06FF016
:1009D000010253101AEB06004CEB085110EB0A0011
:1009E00041EB0B01BDE8F04D00F0A3B8C1F30A5292
:1009F000C1F3130140F2FF3341F480119A4202DA4D
:100A000000200146704740F233439A42A2F233423B
:100A100002DC5242FFF71ABEFFF709BE30B5041ED2
:100A200071F1000404DB4FF00044404264EB01012B
:100A3000141E73F1000405DB1C464FF000435242C4
:100A400063EB0403994208BF904230BD064C074D4A
:100A500006E0E06840F0010394E80700984710348E
:100A6000AC42F6D3FFF7A2FCFC2E01082C2F0108A4
:100A7000202A06DBCB17203A41FA02F043EAE07362
:100A800006E041FA02F3D040C2F12002914008434F
:100A9000194670472DE9F05F824600780027154619
:100AA0008B460AF10104B946302801D09DB113E00C
:100AB00014F8010B0127782803D0582801D045B13C
:100AC0000AE00DB1102D07D10027102514F8010BF5
:100AD00002E0082500E00A250026B0460EE005FBEE
:100AE000080005FB06F1012701EB10461FFA80F80C
:100AF000B6F5803F00D3B94614F8010B294600F043
:100B000075F80028EBDABBF1000F05D00FB1641EB9
:100B100000E05446CBF80040B9F1000F06D011F0C8
:100B200099F802210160C81EBDE8F09F48EA06401E
:100B3000FAE710B5141E73F1000408DA401C41F105
:100B4000000192185B411A4301D120F0010010BD51
:100B50002DE9F04D92469B4611B1B1FA81F202E0C7
:100B6000B0FA80F220329046FFF761FD04460F464E
:100B700040EA0A0041EA0B0153465A46084313D0A3
:100B8000114653EA010019D0C8F140025046FFF760
:100B90005DFD05460E46504659464246FFF747FD65
:100BA000084305D0012004E020463946BDE8F08D19
:100BB0000020054346EAE0762C4337430A98630554
:100BC000E40AA0EB08000022FD0A44EA47540A3078
:100BD00002D500200146E9E7010510196941DDE968
:100BE000084500196941BDE8F04DA2E73A2800D256
:100BF000303820F02002412A01D3A2F13700884288
:100C000001D34FF0FF30704730B58C1810F8012B2E
:100C100012F00F0301D110F8013B120906D110F8B0
:100C2000012B03E010F8015B01F8015B5B1EF9D1B9
:100C300001E001F8013B521EFBD1A142E6D30020A6
:100C400030BD0000000000004EF624500521CEF219
:100C50000000BFF35F8F0167016841F480310160DC
:100C6000BFF34F8FBFF36F8F70470000000000008D
:100C70004EF69C500021CEF20000016041607047AA
:100C8000FEE7000000000000FEE70000000000009A
:100C9000B0B582B048F2000440F20655C4F2020436
:100CA000C0F20405002001902046294603F034F8E4
:100CB000012808D140F6281001A9C2F201400068BD
:100CC000006810F0D9F92046294603F01DF805F117
:100CD0000A01204603F018F8019850B14EF604506E
:100CE0004FF08051CEF200000160BFF34F8FBFF391
:100CF0006F8F02B0B0BD0000FEE7000000000000F2
:100D000010B582B01E20009044F6A15040F2E414C9
:100D1000C0F6000008A14FF400720023C2F20044A4
:100D2000019410F029FCC4B2012C01D10FF084FE13
:100D3000204602B010BD00BF696E6974000000005B
:100D4000FEE7000000000000FEE7000000000000D9
:100D5000FEE70000000000000000000000000000AE
:100D6000EFF30980BFF36F8F154B1A681EF0100F59
:100D700008BF20ED108A20E9F04F10602DE909002E
:100D80004FF0200072B680F31188BFF34F8FBFF38E
:100D90006F8F62B60FF094FE4FF0000080F3118861
:100DA000BDE8090019680868B0E8F04F1EF0100FA0
:100DB00008BFB0EC108A80F30988BFF36F8F7047CB
:100DC0009006012400000000000000000000000068
:100DD000074B19680868B0E8F04F80F30988BFF343
:100DE0006F8F4FF0000080F31188704700BF00BF85
:100DF0009006012400000000B0B501380024B4EBD7
:100E0000106F01D00120B0BD4EF21005CEF20005EA
:100E100068600F2000F024FAAC60072028602046AC
:100E2000B0BD00000000000080B510F0CDFB01282F
:100E300008BF80BD0FF044FF80BD0000000000002F
:100E400070B54EF61450CEF20000416F41F47001BF
:100E500041670168C90327D400210167BFF34F8FA1
:100E6000C16E43F6E07CC1F3C903C1F34E3203F116
:100E7000010E9B070CEA42111C46754644EA010626
:100E8000013D04F14044C0F84C62F7D1002AA2F1C0
:100E90000102EFD1BFF34F8F016841F4803101604F
:100EA000BFF34F8FBFF36F8F00210167BFF34F8FE9
:100EB000016843F6E07C21F480310160BFF34F8F7D
:100EC000C16EC1F3C903C1F34E3203F1010E9B079A
:100ED0000CEA42111C46754644EA0106013D04F144
:100EE0004044C0F86062F7D1002AA2F10102EFD1BC
:100EF00044F20040C5F60200BFF34F8FBFF36F8F7F
:100F0000016841F0804101600168B1F1FF3FFBDC05
:100F1000C16C41F00101C16440F26841C5F60001B5
:100F20000A6822F001020A6081684FF6FF7221F020
:100F3000030181600168CEF6F222114001604FF694
:100F4000FE72D0F8C410CAF6FF721140C0F8C41087
:100F500040F20C328168C0F2C0021140816043F659
:100F6000CC72D0F88C10C7F600621140C0F88C101B
:100F700048F28002D0F89010C8F688021140C0F8FC
:100F800090104EF6C072D0F89410CCF2FF3211409F
:100F9000C0F89410D0F8D01040F201329143C0F85C
:100FA000D01048F68802D0F8F010CFF688721140C1
:100FB000C0F8F0100021C1F2FF41C1604FF4E00120
:100FC000C0F8CC1042F22001C0F20111A1F580322C
:100FD000426040F20112C0F88410C0F8881000216D
:100FE000C0F89810C0F20102C0F88020C0F8D810F4
:100FF000C0F89C10C0F8A010C0F8A4100BF054F872
:101000004FF00060002108F0A3FD70BD000000005B
:1010100092B04FF0FF30119043F23000109043F245
:1010200035706D46C3F22E100F9043F231604AF2D4
:101030002014C2F638600E9043F631103221C2F609
:1010400032600D902846C0F20704FFF742FA42F6DC
:101050005B0A0DAE5AA7C0F6010A02E047A011F0E4
:101060007FFA4CF21031304607F0DEF80028F5D058
:1010700083464BA011F074FA0121584607F00CFD8D
:101080000121584607F030FD00215846224607F05E
:10109000EFFC00215846224607F00EFD584607F0A7
:1010A00003F8052005210522052307F049F88046AD
:1010B00060B900BF384611F053FA0520052105221A
:1010C000052307F03DF80028F4D080460020D8F82A
:1010D0002C10C8F81C0000BF21F8100001300528B2
:1010E000FAD13FA011F03CFA0121584607F088FDE3
:1010F0000028119026D4584611A907F021FD8146F9
:10110000013024D042F66C00C0F6010011F028FA3C
:10111000B9F1010F08DA20E058462946434607F0A6
:1011200013F9B9F1000F18DD5846294607F0FCF80D
:1011300002460128F0DA501CF3D1504611F010FAA3
:10114000EFE700BF42F63300C0F6010003E042F6CD
:101150004700C0F6010011F003FA584606F088FF78
:10116000584606F0C9FF404606F0D2FF42F6860018
:10117000C0F6010011F0F4F973E700BF4170703A56
:1011800020437265617465206E65772074637020FA
:10119000736572766572204661696C656421000032
:1011A0004170703A204372656174652074637020E9
:1011B000706F727420537563636573732100000050
:1011C0004170703A20437265617465206D6F64628E
:1011D0007573206D6170204661696C656421000043
:1011E0004170703A20496E697469616C697A652052
:1011F0006D62206D617020537563636573732100A8
:1012000080B582B041F2110106A0C0F600010022B3
:101210004FF400734FF0180CCDF800C00AF02CFE0C
:1012200002B080BD5443505F536572766572000012
:10123000B0B541F200041A25C4F20104C0F20B75E6
:10124000204629460FF000F8002808BFB0BD204610
:1012500029460EF0C9FFB0BDFEE700000000000007
:101260004EF623510001CEF20001087070470000D5
:1012700080EA80007047000070B588B015461022E3
:10128000044604F06DFE411C34D140F29C16C2F2BB
:101290000046316873292DD104200590D5E900015D
:1012A000039104F0070101220023042C029038BFAF
:1012B00002FA01F3601C07AA8DF81C3000210023FC
:1012C00002AD009505F0E8FE002811D40ED006AB63
:1012D00040F6FF7141F2070205A80090204604F095
:1012E000BBFE0699084307D06F2000E06E203060F7
:1012F0004FF0FF3008B070BD002008B070BD000096
:1013000010B58068002808BF10BD40F29C100C4644
:10131000C2F20040006807F0F7FB024640F200000E
:10132000C2F200400AA110F06BFC44B140F2000090
:101330000AA1C2F20040224610F062FC10BD40F249
:1013400000010A20C2F2004103F032FB10BD00BFD1
:101350004552524F52202573000000003A20257359
:101360000A000000000000004AF220124FF0FF3196
:10137000C0E9001100210161C0E90211C0F20702B9
:10138000C0E90512C0E90712C0E909117047000061
:101390002DE9F04F89B0044680681546059130B1BB
:1013A00083A18BA0002D08BF084611F0D9F8E06A90
:1013B000C16B20468847B0B16068002103288DF8D2
:1013C000201006D800F00700012101FA00F08DF886
:1013D0002000E06A406800F1010795B1606906905D
:1013E00004F1180016E0A068002800F0C98040F25F
:1013F000000389A0C2F200432921012211F097F8CD
:10140000BEE0606A18B9A16A002900F0BE800690AB
:1014100004F128000068079006A8002F04906DD002
:101420000195059872A54FF0000B0138029000203D
:10143000039006E00690206A079006A80490002F0B
:101440005ED0E06A08A9049A3B46866C2046B04705
:10145000013063D0E06A3A46C36A059800EB0B019D
:1014600020469847814638B940F29C104FF0FF392A
:10147000C2F200406821016019F1010065D0A06846
:1014800070B1B9F1010F0BDB0298CA4600EB0B08F3
:1014900018F8011F284610F0C1FBBAF1010AF7D174
:1014A000B7EB0907CB441CD10398C0B201280BD07D
:1014B00000BBE06A05994068085C019900F084FD72
:1014C00010B1074601200BE020460599019A00F073
:1014D0004FFDE16A07465844C96888425AD802203D
:1014E0000390002FABD0E0690028A3DC216A01291A
:1014F000A0DAA4E70027002FF5D1A0E74FF0000BFA
:10150000A06810B10A2011F025F8E06A05995A4642
:10151000036B2046984709B0BDE8F08F3CA12046F8
:10152000FFF7EEFE207B80072AD540F29C10C2F226
:1015300000400568092D18D06E2D1CD1204600F002
:1015400087FA204606F0B0FD15E02FA12046FFF7F0
:10155000D7FE207B800713D540F29C10C2F20040DA
:101560000568092D18BF6F2D11D1204606F080FDAA
:10157000204606F089FD40F29C10C2F20040056052
:101580004FF0FF3009B0BDE8F08F002045E7682D2F
:10159000F6D1EAE740F29C1144F25B20C2F200412E
:1015A000C0F2B260086014A12046FFF7A9FEE7E789
:1015B00057616974696E6720666F7220616E206979
:1015C0006E6469636174696F6E2E2E2E00000000D8
:1015D00057616974696E6720666F72206120636F5E
:1015E0006E6669726D6174696F6E2E2E2E0000003A
:1015F0003C252E32583E0000746F6F206D616E796D
:101600002064617461000000726561640000000084
:1016100073656C65637400004552524F52205468E4
:101620006520636F6E6E656374696F6E20697320E9
:101630006E6F742065737461626C69736865642E83
:101640000A00000000000000002907D4027C920775
:101650004FF0FF0258BFF7228A4202DAFF2903D176
:10166000FF2101600020704740F29C101621C2F259
:10167000004001604FF0FF307047000000000000A4
:10168000B0B5D0F830C0049DBCF800E00EF1010EFA
:10169000ACF800E04FEA1E242C709CF800406C70FF
:1016A00000246C800068A871100A2872180AA872B9
:1016B0000C20E9716A72EB72B0BD000000000000FE
:1016C00002468068000A08709068487000204880D0
:1016D0001068887108205268CA71704700000000C5
:1016E000104670470000000010B50446406800280E
:1016F00048BF10BD022106F00BF9606804F008FC39
:101700004FF0FF30606010BDB0B584B00446056B8B
:1017100002200121002206F06FF90028606028D421
:1017200000F076F9013035D0A06828B105F1080144
:101730006A681CA010F072FAA88802218DF80110C6
:1017400004F0E2FDADF802009DF80100694608359D
:101750000A1D294604F0F4FD00280EDD606804F13E
:1017600014026946FFF788FD013013D0002004B051
:10177000B0BD4FF0FF3004B0B0BDA06850B140F232
:10178000000042F6B761C2F20040C0F601012A46ED
:1017900010F036FA606804F0BBFB4FF0FF30606079
:1017A00004B0B0BD436F6E6E656374696E6720747C
:1017B0006F2025733A25640A000000000000000035
:1017C0002DE9F047C2B040F29C190446002601AD55
:1017D0004FF6FF774FF00408C2F200494FF04B0A72
:1017E00006E000BF06440121B1B1B0F5827F18D1F7
:1017F00060684FF482720823294605F0B5FA012883
:10180000F1DBB1B23A1A8A42ECDA0021C4F80C805A
:10181000C9F800A00029E8D14FF0FF3042B0BDE880
:10182000F087B0B242B0BDE8F087000000000000D1
:1018300010B50446006B08B10EF046FE20460EF0CF
:1018400043FE10BD000000000088000400BA70478D
:101850004068C043C00F704710B591F800C01378BE
:101860009C4512D191F801E05478A6450DD15188DC
:1018700009040ABA22B38068B0B140F200001EA188
:10188000C2F2004010F0BCF90EE0806860B1507800
:10189000497840EA032240F2000041EA0C23C2F2F8
:1018A000004008A110F0ACF940F29C1044F25B211A
:1018B000C2F20040C0F2B26101604FF0FF3010BDD3
:1018C000002010BD496E76616C6964207472616E8F
:1018D00073616374696F6E20494420726563656942
:1018E000766564203078255820286E6F7420307813
:1018F0002558290A00000000496E76616C69642051
:1019000070726F746F636F6C2049442072656365F9
:1019100069766564203078255820286E6F742030F1
:101920007830290A0000000080B50022FFF730FD62
:1019300080BD00000000000080B54068002305F075
:1019400013FA80BD000000002DE9F04F81B040F295
:101950009C1A40F2000914460D4606460027C2F2C2
:10196000004A4FF0010B0FF26408C2F2004900BFB9
:1019700070680022013000232946009405F08CFB9A
:10198000411C15D1DAF8000004281AD1B06828B13A
:101990002021012240464B4610F0C9FD2F7070688F
:1019A0000328E5D800F007000BFA00F02870DFE705
:1019B00020B96E20CAF800004FF0FF3001B0BDE83A
:1019C000F08F4FF0FF3001B0BDE8F08F41206E6F17
:1019D0006E20626C6F636B6564207369676E616C07
:1019E00020776173206361756768740A00000000E6
:1019F00080B54068202305F05FFD80BD0000000039
:101A00008A1F12BA120C828008467047000000003C
:101A1000B0B582B0044601AB06210122042000903B
:101A200020460125019505F01BFE01300BD046F242
:101A30007E6101AAC8F204012046019504F0A4FCCD
:101A4000002002B0B0BD4FF0FF3002B0B0BD0000CA
:101A500080B5816944F6D352C1F26202406951FBFC
:101A600002F14FF47A738A0902EBD17100FB031083
:101A700080B20EF071FE80BDF0B581B0B0B3064605
:101A8000044656F8140F98B30F4699B32078A16A0C
:101A900007F06EFAC8B3054647600AF0A9F8304669
:101AA00029460AF0A5F9D8B36C6800212046002623
:101AB0000AF006FC002120460CF0AEFC0021204676
:101AC0000CF08EFE0021002220460BF069FF002161
:101AD00020460AF0A9FE05F110006E600AF064F9D4
:101AE00028462E6107F0C0FBFF2536E0FA2534E0DA
:101AF000FA2532E06FF00C0005F0E2F801463046BE
:101B00000AF076F9A0B1FA2527E06FF00C0005F095
:101B1000D7F8014630460AF06BF988B1FF251CE082
:101B2000A36AABB10021002220460025984714E0AB
:101B3000A36A7BB10021002220469847FA250CE0D9
:101B4000A36A4BB10021002220469847FF2504E0FC
:101B5000002502E0FA2500E0FF2568B201B0F0BDE3
:101B60000A61C26B2AB100BF8A4207D01268002AFC
:101B7000FAD1C26BC16300200A6070470020704731
:101B80002DE9F04383B00446408EADF80800E56BC4
:101B9000D4F82E000190A5B3D1F80E70D1F81890AA
:101BA00001F108060DF1040806E000BF20462946B1
:101BB00000F09EF82D6825B3287A011F032911D360
:101BC00001380228F6D868688742EFD0002F08BF96
:101BD0008145EFD1062240463146FEF785FC0028BC
:101BE000E4D1E7E768688742E4D1062240463146FF
:101BF000FEF77AFC0028DDD02046294600F004F8E4
:101C0000D8E703B0BDE8F083B0B50C46097A0546C5
:101C1000062907D1204600F0A3F8226902212846B0
:101C20009047B0BD207B20B12846214600F060F8E7
:101C3000B0BD211D284602F013FA64202073B0BD08
:101C40002DE9F04109B31546FAB1804608680C4603
:101C5000D8B12868C8B1D8F83C70002F08BFBDE8DB
:101C6000F0814FF6A96601E03F6877B17968206896
:101C70008142F9D180B2B042F6D12888B042F3D087
:101C80004046394600F004F8EEE7BDE8F081000078
:101C9000B0B50C46097A072912D8054601208840BC
:101CA00010F08E0F07D0204600F05AF8226902216A
:101CB00028469047B0BD10F0300F1CBF06202072A0
:101CC000B0BD000000000000C36B002B08BF7047D0
:101CD0008B4205D01A461B6843B18B42FAD100E013
:101CE000002209680AB111607047C16370470000A3
:101CF000B0B50C46497B0546481C60732269022139
:101D000028469047607B0A2805D3072020724FF4AD
:101D100016706081B0BD204600F022F822690121D2
:101D200028469047B0BD000010B50C46002008734F
:101D300001204A600881FEF793FB46F26762014684
:101D4000C6F2666250FB02F0821002EBD07000EB2C
:101D500080020020A1EB4201618110BD0000000063
:101D600000281CBF00210172002070470000000005
:101D70002DE9F04F81B040F2C050C2F2014004683A
:101D8000002C70D040F2030846F2676B0226C0F2C6
:101D90001408C6F2666B4FF0000A14274FF00509CD
:101DA00003E000BF2468002C5DD0E56B03E000BFBA
:101DB000688988B32D68002DF4D0287B00281CBFCB
:101DC00001382873688900281CBF01386881287A87
:101DD000411E02290ED3C11E0229E9D30728E9D1E9
:101DE00068890028E6D12846FFF7BAFF2A69012151
:101DF00027E000BF68890028DCD1291D20462E720B
:101E000002F046F9687A01306872C1B203291BD327
:101E1000C5F808802D68CEE7687A18B904202872C2
:101E200085F80DA0291D204602F01AF9687A6F8105
:101E300001306872C1B20229BCD32A690021C5F8F9
:101E4000089020469047B5E7FEF70AFB50FB0BF1E0
:101E50008A0802EBD17101EB8101A0EB41000A304D
:101E600068812D68A7E701B0BDE8F08F0000000091
:101E70002DE9F04381B040F6501588468146002791
:101E8000C2F20145002400BF09F03EFFE95941B10B
:101E900009F056FF10370134402FF5D14FF0FF34D1
:101EA00013E0EE1945F8079009F04AFF0020706032
:101EB00099F80010308101F0F00181F0100151EA31
:101EC000080118BF0121B0817181204601B0BDE831
:101ED000F08300000000000070B54EF61450CEF202
:101EE00000000168890312D4BFF34F8FBFF36F8FD7
:101EF0000021C0F83C12BFF34F8FBFF36F8F016812
:101F000041F400310160BFF34F8FBFF36F8F016861
:101F1000C90348BF70BD00210167BFF34F8FC16E79
:101F200043F6E07CC1F3C903C1F34E3203F1010E65
:101F30009B0700BF0CEA42111C46754644EA0106A5
:101F4000013D04F14044C0F84C62F7D1002AA2F1EF
:101F50000102EFD1BFF34F8F016841F4803101607E
:101F6000BFF34F8FBFF36F8F70BD00000000000004
:101F700080B5D0F82CC0DCF80430C85C7AB11728E2
:101F80004FF0000E1BD8012202FA00F01F22C0F20F
:101F9000820210421CBF581890F801E00FE0A0F137
:101FA0000F02022A03D2581890F805E007E017281C
:101FB00003D1581890F809E001E04FF0000EDCF86A
:101FC0000800704480BD00000029014611D0162988
:101FD0000DD8012048F260028840C0F20102104290
:101FE0001CBF04207047162904BF0620704701203B
:101FF0007047072901DA04207047A1F10F00022879
:1020000001D2052070470020172908BF0920162992
:1020100008BF06207047000010B5D0F82CC0DCF8CF
:1020200004E011F80E00431E162B27D803224FF0B0
:10203000FF30DFE803F015150C0C232326232323A0
:102040002323232323232B23232323250C000EEBDD
:102050000100C1780079400040EA4120821C10E074
:102060000EEB01000123C178007940EA0121CA0882
:10207000400718BF03EBD102023202E0052200E064
:10208000072202EB0E00DCF80810084410BD000027
:10209000B0B582B000284CD0456A0446002D4AD025
:1020A000A96A0020688248F689004A1CC8F68800A0
:1020B0000CD01E314FF6FF73A1FB0012510999425B
:1020C00038BF5309002B08BF0123AB82E96A4A1CC1
:1020D0000DD01E314FF6FF73A1FB0012510999423A
:1020E00038BF5309002B08BF01236B81EB81296B9B
:1020F0004A1C0DD01E314FF6FF72A1FB00014809AA
:10210000904238BF4A09002A08BF0122AA812A82C8
:10211000A8896989013880B2884201D2002068818B
:10212000E879C0070CD195F91C00002819D4FF20CC
:1021300007E016A000E00FA00FF070FD02B0B0BDE8
:10214000286A0190686A00900A21284601F020F868
:1021500005F11C0101AA6B46204607F035FC02B0D0
:10216000B0BDC0B2C02802D36FF07F40E9E74FF6A0
:10217000FF70E6E7646863705F62696E643A2064CA
:1021800068637020213D204E554C4C00646863709C
:102190005F62696E643A206E6574696620213D2035
:1021A0004E554C4C00000000B0B5456A044608216D
:1021B000284600F0EDFF05F13401EA692046FFF7FB
:1021C000B3FDB0BD0000000010B540F2C050C2F237
:1021D0000140046801E000BF24684CB3606A002835
:1021E000FAD041790029F7D0818A69B1428A013257
:1021F000428293B28B4207D1204600F01DFE20465A
:1022000000F0D2FF2468E8E7018A39B10139018280
:1022100004D1204601F058F82468DEE7C18900297E
:10222000DAD00139C181D7D1204601F031F8D3E7A6
:1022300010BD00000000000010B50229044608D0BF
:10224000012913D0002918BF10BD2046FFF720FF39
:1022500010BD42F2F4612046C0F601010A460B4669
:1022600007F0B2FB204600F0BFF810BD646A0C21F5
:10227000204600F08DFF1420208110BD00000000DA
:102280002DE9F04381B0002864D00D46002966D0C6
:102290000746914636204FF49A714FF420729846C3
:1022A00007F0A2FC00285FD00446B9F1030F02D169
:1022B000687903280AD1A87940F21816C2F20046BC
:1022C00010B9FEF7CDF830603068286066684FF4CA
:1022D0009A713046FEF7FDF840F20110308097F811
:1022E0003400B070286804F00BF8A9F107017060A1
:1022F00002290AD3B9F1040F07D0B9F1030F06D1AF
:10230000687900F0FE00042801D17868F06007F1D8
:102310002E001B2142187318013112F81B2C2129A1
:102320005A70F7D148F2632006F1F005C6F2533037
:10233000C6F8EC00002035220123294600F0F0F910
:1023400029464A4600F0F8F9B8F1000F18BFA8F87E
:1023500000000AE00FA00FF061FC002405E005A0DA
:102360000FF05CFC002400E00024204601B0BDE832
:10237000F08300BF646863705F6372656174655F5A
:102380006D73673A206468637020213D204E554C80
:102390004C000000646863705F6372656174655F20
:1023A0006D73673A206E6574696620213D204E5535
:1023B0004C4C00000000000010B540F22010C2F2AA
:1023C00000400178013901700A0618BF10BD40F2C3
:1023D0001C14C2F2004420680DF0E6FB00202060CF
:1023E00010BD0000000000002DE9F04184B0466AF5
:1023F00080460C21304600F0CBFE0DF10E03042286
:1024000040463146FFF73CFF90B341680546BDF8B2
:102410000E0001F1F00732220423394600F080F962
:102420000446ADF80E00F06903F06AFF024620464C
:10243000394600F089F939462A46ADF80E0000F019
:10244000ABF940F21C1042F2F461C2F2004042F2D9
:10245000F862C0F60101C0F6010200684323019151
:102460002946CDF800800DF0C3FC284607F0E4FDB6
:1024700004B0BDE8F08100002DE9F04383B0446A68
:10248000804600200621E061204600F081FE0DF12B
:102490000A03012240462146FFF7F2FE002848D0F9
:1024A00041688146BDF80A0001F1F0073922022394
:1024B000394600F035F9B8F82C203946ADF80A0055
:1024C00000F05EF937220323394600F029F942F281
:1024D000A0664FF0FF35C0F60106ADF80A0000BF58
:1024E0007119BDF80A004A78394600F025F901351E
:1024F000ADF80A00022DF3D1BDF80A0039464A466C
:1025000000F04AF940F21C1042F2F461C2F20040BD
:1025100042F2F862C0F60101C0F6010200684323EE
:1025200001914946CDF800800DF062FC484607F065
:1025300083FDA0794FF47A7140F2F312FF281CBF9B
:102540000130A071A0798140062812FA81F144F689
:10255000D352C1F26202A1FB02124FF0780138BFE0
:102560005109218103B0BDE8F083000000000000A4
:1025700010B540F2C050C2F2014004681CB910BD51
:102580002468002CFBD0606A0028F9D00189022958
:1025900006D3013901812468002CF4D1EFE700BF94
:1025A0000129EDD101390181204600F0A9FEE7E7BC
:1025B00070B540F22815446AC2F2004540F2301668
:1025C0000020C2F20046EA78C4E90800002A1CBFD5
:1025D000F068A062287908B1306901E0A06A40087B
:1025E0006A79E0620AB1706903E0A06AC0EBC000DA
:1025F000C008AA7920630869E0613AB1B06903F0C4
:102600007FFEE179206241F0010002E0E07900F014
:10261000FE00E071E879002808BF70BDF06903F0A2
:102620006FFE606270BD000010B50446406A0C2168
:1026300000F0AEFD42F2F4612046C0F601010A4608
:102640000B4607F0C1F92046FFF716FF10BD00004A
:1026500070B540F22812C2F200429278002A08BFF8
:1026600070BD0D4640F23011466AC2F20041044688
:1026700000203081886803F043FEB0612869F06172
:10268000204600F0BDFC70BD70B540F22015C2F2CE
:102690000045287800BB0DF023FA40F21C16C2F268
:1026A00000463060F0B1417A42F2F464C0F60104B1
:1026B000442241F02001417221460DF021F830689A
:1026C000432221460DF080F842F631513068C0F6C1
:1026D000000100220DF050FA287801302870002007
:1026E00040B270BDFF2040B270BD0000000000008D
:1026F00080B5416A89B14A79D31E032B04D3002ADD
:1027000008BF80BD0A2A04D100228A7100F090FA25
:1027100080BD00228A71FFF7AFFE80BD000000007F
:1027200000F1010C0A541FFA8CF2023080B28B5473
:102730007047000000000000431C0A549BB218467A
:10274000704700000000000080B5431C4FEA126C87
:102750001FFA83FE01F800C000F1020C130C1FFAEF
:102760008CFC01F80E3000F1030E130A01F80C3056
:1027700004301FFA8EF380B2CA5480BD00000000FE
:1027800000F1010C130A0B5402301FFA8CF380B2D3
:10279000CA54704700000000B0B5431C15469CB2F7
:1027A000FF22432C0A5409D8C0F1420211FA83F0E7
:1027B000012111FA82F1FDF78CFE4320F13081B244
:1027C000284607F0B5FCB0BD2DE9F04F89B042892D
:1027D00040F2281BC2F2004B00212C2ACBF800103B
:1027E000CBF8041002D24FF0FE0EA2E1002800F058
:1027F0009E81B0F80880F0244FF6FB7C0122049201
:1028000000220392064600BFA3B27289934207D307
:102810003668A41A002EA8EB0208F5D184E100BFA7
:10282000D6F804A08E4605E04FF0FE0E0127002FDB
:1028300040F07F81002E00F04481A1B21FFA88F29F
:10284000914280F03E811AF80120FF2A00F0398180
:102850000CF102039BB29942E6D877894B1CBB422C
:1028600002D2534405E000BF3368002B00F03080F3
:102870005B6893F800C03B2A00F22F804FF0FF37CF
:1028800013469146DFE802F0611E292E29292929E5
:1028900029292929292929292929292929292929A8
:1028A0002929292929292929292929292929292998
:1028B0002929292929292929292929373D47512920
:1028C0002929565BBCF1040F40F0A88006273AE0A6
:1028D0004FF0000C3B2A7FF6D1AF4FF0FF374FF09F
:1028E000000906E0BCF1030F40F2988007274FF083
:1028F0000409634629E0BCF1040F40F08F800327F0
:1029000021E0BCF1010F40F08980049BDB0700F05F
:102910008580002717E0BCF1010F4FF0010712D0AE
:102920004FF0FA0E4FF6FB7C81E7BCF1040F75D136
:10293000022708E0BCF1040F70D1042703E0BCF1CA
:10294000040F6BD105276346E146002A4FF6FB7C56
:102950006AD019444FF6FD7291423FF665AFB9F166
:10296000000F01F10201029160D04A460190A01CC3
:102970005C46079000200890CDF814A009E000BF45
:102980004FF0FA0E0020DDF814A04F465A460028FA
:1029900073D0E05D00286FD15FFA82FACDF818E0BD
:1029A0005546BAF1040F28BF04250798B94687B2E7
:1029B0009346304608A92A463B4607F051FA85421D
:1029C00036D1BAF1050F3BD35FEA8A704FF00105AB
:1029D0004FF6FB7CD4D1089804F8095003F090FC22
:1029E00040F230114FF6FB7CC2F2004167455A4677
:1029F000ABF1040241F8290003D94FF0FE0E00208C
:102A000008E0079809F10109043007901E2501200C
:102A1000DDF818E0DDF814A04F46B8E74FF0FA0EE5
:102A200001274FF6FB7C02E701342CE0029C2AE0F0
:102A30004FF0FE0E01254FF6FB7CDDF814A01CE0E4
:102A4000BAF1010F4FF6FB7C08D0BAF1040F32D176
:102A5000089803F055FC4FF6FB7C01E09DF8200040
:102A6000012104F8091040F230110890C2F200412F
:102A7000DDE905AE41F829000025A346DDE90104A2
:102A80000DB12F46D3E6A2B271898A420CD3641AE3
:102A9000A8EB0108A2B21FFA88F18A42BFF4C4AEC3
:102AA00036681EB1D6F804A00027C0E64FF0FA0E33
:102AB00001270026BBE64FF0FA0E0125DDF814A031
:102AC000DBE79BF8001099B140F230110022C2F20E
:102AD00000415B468BF800200968012909D00329D1
:102AE00010D0022904D101220121039112B90EE074
:102AF000012262B1039909B32C244FF06C08002124
:102B0000039107E0012103910022002AF2D16C24F5
:102B10004FF0EC0800284FF00001049171464FF08F
:102B2000FE0E7FF46FAE04E04FF0FE0E01E04FF0BA
:102B3000FE0E4FFA8EF009B0BDE8F08F4FF0000E98
:102B4000F7E70000000000002DE9F04383B0446A7D
:102B500080460421204600F01BFB0DF10A030322EE
:102B600040462146FFF78CFB002843D04168814650
:102B7000BDF80A0001F1F007392202233946FFF7B8
:102B8000CFFDB8F82C203946ADF80A00FFF7F8FD64
:102B9000372203233946FFF7C3FD42F2A0664FF008
:102BA000FF35C0F60106ADF80A0000BF7119BDF887
:102BB0000A004A783946FFF7BFFD0135ADF80A0033
:102BC000022DF3D1BDF80A0039464A46FFF7E4FD6D
:102BD00040F21C1042F2F862C2F20040C0F601025C
:102BE000432349460068CDF800800DF08DF8484633
:102BF00007F022FAA0794FF47A7140F2F312FF281D
:102C00001CBF0130A071A07941430A2812FA81F15A
:102C100044F6D352C1F26202A1FB02124FF014013A
:102C200038BF5109218103B0BDE8F08300000000E6
:102C30002DE9F04383B0446A80460321204600F02A
:102C4000A7FA0DF10A03032240462146FFF718FBBD
:102C5000002851D041688146BDF80A0001F1F00713
:102C6000392202233946FFF75BFD4FF410723946D3
:102C7000FFF786FD322204233946FFF751FD054652
:102C8000ADF80A00E06903F03BFB024628463946EE
:102C9000FFF75AFD372203233946FFF741FD42F281
:102CA000A0664FF0FF35C0F60106ADF80A0000BF80
:102CB0007119BDF80A004A783946FFF73DFD013524
:102CC000ADF80A00022DF3D1BDF80A0039464A4694
:102CD000FFF762FD40F21C1042F2F862C2F20040BF
:102CE000C0F60102432349460068CDF800800DF08C
:102CF0000BF8484607F0A0F9A0794FF47A7140F23A
:102D0000F312FF281CBF0130A071A07941430A28AB
:102D100012FA81F144F6D352C1F26202A1FB02120F
:102D20004FF0140138BF5109218103B0BDE8F08391
:102D3000F0B581B040F2F4101746C2F20040456889
:102D40006E6A002E73D03079002870D078892C28D4
:102D50006DD3D7F804C09CF80010022967D195F80C
:102D6000341091B105F12E010CF11C02002300BFBB
:102D700008781478A0425AD1042B06D895F834006C
:102D80000133013101328342F2D3DCF8040003F055
:102D9000B7FA316888424AD13846FFF715FD002856
:102DA00045D140F22810C2F20040407800283ED0C1
:102DB00040F230107968C2F200400079022830D029
:102DC000062814D0052832D17079021F022A1BD39D
:102DD000032818BF01282AD12846FFF7E9FB95F8F8
:102DE0003500000717D42846FFF752F91FE0727923
:102DF000052A14D8012303FA02F212F03A0F0ED07A
:102E00002846FFF711FC12E02846FFF7D1FB2846C1
:102E1000FFF73EF90BE02846FFF7C6F907E0022866
:102E200005D17079062802D12846FFF711FC3846F3
:102E300007F002F901B0F0BD2DE9F04184B0446A19
:102E4000002C64D005466079002860D0A06903900A
:102E50000020C4F81200C4F80E00C4E90600C4E95A
:102E60000800C4E90A002063284600F0F9F90021AF
:102E700000283ED0204600F08BF90DF10A0307220E
:102E800028462146FFF7FCF948B341680646BDF8DD
:102E90000A0001F1F008362204234146FFF740FC06
:102EA0000746ADF80A00039803F02AFA02463846AE
:102EB0004146FFF749FC41463246ADF80A00FFF7AC
:102EC0006BFC40F21C1003AAC2F2004043233146BF
:102ED000009500680CF018FF304607F0ADF842F29C
:102EE000F4612846C0F601010A460B4606F06CFD67
:102EF00002E0204600F04CF904F134012846FEF7C8
:102F0000E3FE207918B1FFF757FA0020207104B0D2
:102F1000BDE8F081000000002DE9F04383B0446A71
:102F200080460521204600F033F90DF10A03032203
:102F300040462146FFF7A4F9002843D04168814666
:102F4000BDF80A0001F1F007392202233946FFF7E4
:102F5000E7FBB8F82C203946ADF80A00FFF710FC63
:102F6000372203233946FFF7DBFB42F2A0664FF01E
:102F7000FF35C0F60106ADF80A0000BF7119BDF8B3
:102F80000A004A783946FFF7D7FB0135ADF80A0049
:102F9000022DF3D1BDF80A0039464A46FFF7FCFB83
:102FA00040F21C1004F11802C2F2004043234946CB
:102FB000CDF8008000680CF0A7FE0546484607F0F3
:102FC0003BF800E0FF25A0794FF4FA6140F2F312DC
:102FD000FF281CBF0130A071A07941430A2868B2C4
:102FE00012FA81F144F6D352C1F26202A1FB02123D
:102FF0004FF0280138BF5109218103B0BDE8F083AB
:103000002DE9F04383B0002800F09C80D0F8249094
:103010000546B9F1000F00F097800121484600F005
:10302000B7F80DF10A03032228464946FFF728F9AD
:10303000002867D041688046BDF80A0001F1F0071A
:10304000392202233946FFF76BFBAA8D3946ADF8CA
:103050000A00FFF795FB322204233946FFF760FB95
:103060000646ADF80A00D9F81C0003F049F90246FB
:1030700030463946FFF768FB362204233946FFF70E
:103080004FFB0646ADF80A00D9F8180003F038F9EE
:10309000024630463946FFF757FB372203233946AD
:1030A000FFF73EFB42F2A0644FF0FF36C0F601048A
:1030B000ADF80A00A119BDF80A004A783946FFF7B1
:1030C0003BFB0136ADF80A00022EF3D1BDF80A0031
:1030D00039464246FFF760FB40F21C1042F2F461B1
:1030E000C2F2004042F2F862C0F60101C0F60102ED
:1030F000006843230191414600950CF079FE40465B
:1031000006F09AFF99F806004FF47A7140F2F31234
:10311000FF281CBF013089F8060099F8060081409D
:10312000062812FA81F144F6D352C1F26202A1FBE1
:1031300002124FF0780138BF5109A9F8081003B006
:10314000BDE8F0830AA000E002A00EF067FD03B026
:10315000BDE8F083646863705F73656C6563743A9F
:10316000206468637020213D204E554C4C000000C7
:10317000646863705F73656C6563743A206E657430
:10318000696620213D204E554C4C00000000000097
:1031900042798A4208BF70474171002181710181E3
:1031A0007047000000000000B0B530B1044690F850
:1031B0003500C0070AD120A003E042F66A20C0F61D
:1031C00001000EF02BFDF02040B2B0BDA08DB0F597
:1031D000107F1CD3656A25B1287940B1FFF7ECF860
:1031E00005E0482004F0A4FD88B10546606248214E
:1031F0002846FDF76EF942F2392205F13401C0F696
:1032000000022046FEF7ACFCFFF73EFA10B1FF20AB
:1032100040B2B0BD94F8350040074FF0010028716E
:1032200004D402212846FFF7B3FF02E02046FFF74F
:1032300023F9002040B2B0BD6E65746966206973E1
:10324000206E6F742075702C206F6C6420737479FD
:103250006C6520706F72743F000000000000000079
:1032600090B1416A0020002908BF704749790439AC
:10327000CAB201F07F01072A4FF0430238BF012094
:1032800022FA01F10840704700207047000000005A
:1032900010B5446A61790A2912D8012202FA01F1B3
:1032A00040F2224211420BD0FFF736FEA089618A1C
:1032B000401A0228B8BF10BD00EBD0704008E08172
:1032C00010BD00000000000010B5446A61790A29B1
:1032D00012D8012202FA01F140F2324211420BD01F
:1032E000FFF732FCA08A618A401A0228B8BF10BDDD
:1032F00000EBD0704008208210BD000000000000EC
:1033000010B50446406A417901390B291CD8DFE821
:1033100001F0111B0A1B1B061B1B1B1B1B06204657
:10332000FFF7AAF810BD807901280AD82046FFF7D8
:103330007FFC10BD8079052807D82046FFF760FE86
:1033400010BD2046FFF798F810BD2046FFF774FD2A
:103350002046FFF729FF10BDB0B50C46054608F022
:10336000D3FCE9680A6822600C6008F0E9FCB0BD93
:1033700010B5044608F0C8FCE1680C682CB122685E
:103380000A6008F0DDFC204610BD08F0D9FC0020E2
:1033900010BD00000000000048F20F120168CFF6D7
:1033A00030524FF64173114001F580310160002128
:1033B00041608160C16082691A4043F623738032A4
:1033C0008261C16141F21802C16BCFF6DE0341F4A4
:1033D0000271C163D0F80C1141F4003141F0600179
:1033E000C0F80C11D0F8101141F40311C0F81011FD
:1033F000815819404FF4805301F10871815046F211
:103400000001C258C0F2C121C15070470000000045
:1034100010B548F20001C4F20201884209D04AF214
:103420000001C4F20201884218BF10BD4FF480644D
:1034300001E040F21944204608F0CEF9204608F099
:10344000BBF900F0F9FB10BD81B0002100910090A4
:10345000009828B100980138009000980028F9D110
:1034600001B0704700000000052A1ED8DFE802F016
:10347000050309192003886870470868C0F3C30072
:1034800070470A68C2F30D41052915D30068800111
:10349000A1F1040058BF7047920658BF0146084684
:1034A000704748686FF35F3070474FF0FF307047E8
:1034B000C8886FF35F30704700207047000000003D
:1034C000B0B5B1F5E00F14D141F2100240F2601531
:1034D000C3F200054FF0000C855040F25C10C2F2C0
:1034E00000404FF48014056042F20010C3F2000067
:1034F00013E041F20C0240F20005C3F2000544F271
:10350000F45C855040F25810C2F200404FF0004485
:10351000056040F20030C3F2000040F2501E40F25D
:103520005413C2F2004EC2F200430022CEF8002033
:103530001A6000BFAB182946402AAC5018BF03F1EF
:10354000100110329860502A00F2F450C3F804C001
:10355000D960EFD1B0BD000010B548F2000440F6CC
:103560001940C4F2020408F017F940F61A4008F0B6
:1035700013F940F61B4008F00FF92046FFF748FF0B
:10358000204600F0B1FC38B101214FF480620023E5
:10359000204600F0A5F910BD02A00EF0E1FF0020CA
:1035A00010BD00BF454E455420524553455420455B
:1035B00052524F522100000010B5044600F0BCFCEE
:1035C000204600F085FC10BDB0B540F2581CC2F298
:1035D000004CDCF800301C68002C12D431B304F429
:1035E0000343B3F5407F0CD1C4F30D4E0368AEF135
:1035F00004059B0158BFAE46A30658BFAE4696458C
:1036000001D90020B0BDBEF1000F0FD0CEF1000EE9
:103610004FF0FF33DCF80050CC18AD681D44013387
:103620000EEB030201326A786270F3D1DCF800100D
:1036300041F214024FF000430B6083581B0605D57E
:1036400041F20803802585500022C2504A68530485
:1036500009D4120409D44FF480528058C0F3840076
:103660000844103004E0C86802E041F20C01405800
:10367000CCF800000120B0BD70B540F2F4534FF01B
:10368000000E9A4248D840F25C1CC2F2004CDCF8B2
:1036900000301B68002B3FD4002918BF002A0FD030
:1036A000C2F1000E4FF0FF33DCF80040CD18A468E3
:1036B0006D781C4401330EEB030601366570F3D1BF
:1036C000DCF800104A600B6841F2140243F030430A
:1036D0000B608358865803F0040306F020069B19FC
:1036E00004D041F204068350002282510A68D302BA
:1036F00009D4920209D44FF480528058C0F3840058
:103700000844103004E0C86802E041F2100140585B
:103710004FF0010ECCF80000704670BD00000000B4
:10372000F0B581B04FF4706008F036F840F60170E3
:1037300008F032F840F6027008F02EF840F60670F5
:1037400008F02AF800240221C5F6020400224FF4F2
:103750008073204601F0CCF9002103224FF48073DE
:10376000204601F0F1F9022100220223204601F057
:10377000BFF9002103220223204601F0E5F90221CE
:1037800000220423204601F0B3F900210322042380
:10379000204601F0D9F9022100228023204601F0C1
:1037A000A7F9002103228023204601F0CDF904F57A
:1037B000C055022100224FF40063284601F098F919
:1037C000002103224FF40063284601F0BDF904F5FF
:1037D0008066022100224FF48053304601F088F9C0
:1037E000002103224FF48053304601F0ADF902214D
:1037F00000224FF48053284601F07AF90021032279
:103800004FF48053284601F09FF904F50067022128
:1038100000220223384601F06BF900210322022323
:10382000384601F091F9022100221023384601F0B8
:103830005FF9002103221023384601F085F90221A7
:1038400000222023384601F053F9002103222023CF
:10385000384601F079F900214FF48072204601F0DA
:1038600007F90B210422204601F002F90B21022264
:10387000204601F0FDF80B218022204601F0F8F8E7
:103880000B214FF48052304601F0F2F80B21102248
:10389000384601F0EDF80B212022384601F0E8F817
:1038A0000B210222384601F0E3F80B214FF40062AD
:1038B000284601F0DDF80B214FF48052284601F034
:1038C000D7F830200C2107F01BFC48F20000012142
:1038D000C4F2020008F044FB01B0F0BD000000009B
:1038E0002DE9F04782B004460020ADF806002046DE
:1038F000984691460F4600F01FFA50B94FF6FF70F8
:10390000C0F28F00FFF7A0FD204600F015FA002856
:103910006CD02046FFF740FD012F21D14FF6FE76F7
:103920000025C0F204060DF1060700BF00210122A8
:1039300001232046009700F093FABDF80600B54237
:1039400000F0040105F10100ADF8061002D20029D3
:103950000546EBD006F1010A82451ED1002567E13C
:103960004FF480704FF4005100EAD700012201EAC1
:10397000570100230844ADF806000DF106000221AE
:1039800000902046002500F06BFA002800F05081DE
:103990006FF07F40FFF758FD3BE04FF48050ADF8EB
:1039A000060002210122002320460097002500F096
:1039B00057FA002800F03C81002500BF00210122B9
:1039C00001232046009700F04BFABDF80600B542EF
:1039D00000F0200105F10100ADF8061002D2002927
:1039E0000546EBD0824503D1002521E100251FE1EA
:1039F0000021012210232046009700F031FABDF883
:103A000006004FF4006101EA4027800758BF07F520
:103A1000804720685FEA495120F4B04040EA07003F
:103A200020600BD5206841F2180140F480602060CE
:103A300060584FEA996262F39A606050606840EAA9
:103A40000800606040F26010C2F200400178C907CF
:103A500017D040F264114FF67F73C2F20041CFF6E7
:103A6000FF5341F21807096822681A408023C0F208
:103A700000230B40090A1A442260E25961F38712BD
:103A8000E251017889070ED540F27C114FF4805243
:103A9000C2F200414FF6FF77CFF6FE070968A35840
:103AA0003B401943A150017849070ED540F28011DF
:103AB0004FF48052C2F200414CF2FF07CFF601777B
:103AC0000968A3583B401943A150017809070CD558
:103AD00040F284114FF48052C2F200414CF20207CE
:103AE0000968A358BB431943A1500178C9060ED5F4
:103AF00040F2881141F21802C2F2004143F6E77722
:103B0000CFF6DE570968A3583B401943A15001780E
:103B1000890619D540F28C1141F21802C2F2004117
:103B20004FF6FB77CFF6FF674FF480560968A3582E
:103B30003B400427C0F200170F40C9093B44A35083
:103B4000A25961F3C712A2510178490609D540F282
:103B50009011C2F200410968E2696FF3100211434B
:103B6000E1610178090616D540F294114FF64173D0
:103B7000C2F200414FF484570968A2691A4021EA51
:103B800003031A44A261E259772322F0770203EA81
:103B900011211144E1514178C90705D040F2981133
:103BA000C2F200410968A1604178890705D540F259
:103BB0006811C2F200410968E160417849070AD5FD
:103BC00040F26C1140F2DE73C2F200410968626893
:103BD0009A4311436160417809070CD540F2701196
:103BE0004DF68F53C2F20041CFF6FE73096822688A
:103BF0001A40114321604178C90609D540F2741179
:103C0000C2F200410968226822F440021143216097
:103C10004078800601D401250AE040F278100125A1
:103C2000C2F200400068216821F46021084320604E
:103C3000284602B0BDE8F08740F260110020C2F2D1
:103C40000041086040F26411C2F20041086040F295
:103C50007C11C2F20041086040F28011C2F20041C2
:103C6000086040F28411C2F20041086040F28811FD
:103C7000C2F20041086040F28C11C2F200410860BB
:103C800040F29011C2F20041086040F29411C2F279
:103C90000041086040F29811C2F20041086040F211
:103CA0006811C2F20041086040F26C11C2F200419A
:103CB000086040F27011C2F20041086040F27411D5
:103CC000C2F20041086040F27811C2F2004108607F
:103CD000704700000000000001F01F0241F21C03C9
:103CE0004FF0010CB3EB911F0CFA02F203D1C15853
:103CF0001143C150704789090B5823EA02020A5048
:103D000070470000000000008A0901F01F01012334
:103D100003FA01F1115070478A0901F01F01105890
:103D2000C84000F0010070470844918801641168A0
:103D3000416470470000000070B582B00446066917
:103D4000012026F01C0507F0E7F94DF200314EF294
:103D5000BF12CFF6CE61C0F2E4020144914202D814
:103D600045F0080552E04FF2401147F63F02CFF60A
:103D7000E951C0F27D120144914202D845F00C0590
:103D800044E047F6001145F60022CFF66C41C0F240
:103D900062220144914239D341F600724FF2800110
:103DA000CFF60A22C0F2FA2102448A4202D245F03A
:103DB00004052BE042F680624EF2FF03CFF20F7251
:103DC000C0F2F55302449A4202D845F010051DE0B6
:103DD00044F68052CFF2191202448A4202D245F0D0
:103DE000140513E045F60052CEF61E6202448A42E4
:103DF00002D245F0180509E046F680420131CEF6C0
:103E000023321044884229D246F01C0525614FF424
:103E10000040ADF8060002210122002320460DF1EA
:103E200006060096002500F01BF8A0B14FF6FF70C3
:103E3000C0F20400FFF708FB002101220023204606
:103E400000960126002500F00BF800281CBFBDF8E5
:103E5000060086EAD035284602B070BD0025FAE794
:103E600080B5D0F810C04FF6C37E2CEA0E0E03F0DA
:103E70001F0C41F00103022962F3CF2343EA8C12A5
:103E8000DDF808C042EA0E0202D1BCF800304361FE
:103E900002614FF6FE72C0F2040200BF531E93424D
:103EA000026903D212F001021A46F7D10029016912
:103EB00002D14069ACF800000120884380BD0000B9
:103EC000416821F00041416070470000000000009F
:103ED000016841F2180241F004010160815841F08B
:103EE00002018150704700004FF48051425842F067
:103EF000010242504FF6FE72C0F20402531E93427A
:103F0000425803D212F001021A46F7D14FF4805101
:103F10004058012121EA0000704700000000000025
:103F200030B1026822F44002114301600120704761
:103F3000002070470000000010B50446006840F003
:103F400008002060204600F007F841F218002158D0
:103F500041F40051215010BD41F2180C4FF6FD7391
:103F60000022C0F2040350F80C1041F4801140F814
:103F70000C1000BF50F80C109A4201F4801103D8C5
:103F8000002902F10102F5D1012080EA11507047A9
:103F9000F0B581B00D46044607F0B6FE94F8201047
:103FA000002267786260257241F0010184F82010D8
:103FB000627007F0C5FEA36A1BB1042100222046EF
:103FC0009847A36A1BB10021002220469847A36AA4
:103FD0001BB10221002220469847284602F070FEBD
:103FE0002146064651F8102F1AB10846314607F00F
:103FF000FFFE204650F8141F11B1314607F0F8FEBD
:10400000042F18D80120B84010F01A0F13D094F8DC
:104010002000410700F0FB0084F820000BD4606A08
:10402000391F18BF29460268017102F10C000021F6
:10403000616207F019FF01B0F0BD00000000000050
:1040400000F11001C9B2102901D90520704742F2D0
:10405000A461C0F60101A1EB800000687047000078
:1040600080B584B042F2EE6200F12E03C0F6010288
:104070000291CDE9001242F2E8620121C0F601028C
:104080000391194600F090FA04B080BD00000000D2
:1040900080B584B042F2F46242F2EE6C00F12E037D
:1040A000C0F60102C0F6010C0291CDE9002C42F2EB
:1040B000E8620121C0F601020391194600F074FA8A
:1040C00004B080BD000000002DE9F04F85B040F243
:1040D00024060392019181460A2004900023C2F233
:1040E000004600224FF000084FF0000A4FF0000E8B
:1040F0000A274FF00A0B0A20029000BFB8B2F1184D
:104100000A280C7D08BF002C1CD08CB3B9F1000F1D
:104110000AD0D9F800004D68A84205D1039DDDB151
:104120008868A84218D000BF012C0FD1F058498AE6
:10413000B0B10498714528BF1046049028BF8E4640
:1041400016E000BF4FF0010C174613E0488A4045C7
:1041500024BF934680460BE04FF0000C009209E02C
:104160000298514528BF1046029028BF8A4600BFDA
:104170004FF0010CBCF1000F3AD018330132F02B94
:10418000BCD1019A4FF6FF71900732D4D00702D10B
:10419000B8B20A282DD038B2039C0A2814DB0FFAD3
:1041A0008BF00A280BDBDDF808B00FFA8BF00A2839
:1041B00005DBDDF810B00FFA8BF0092819DC0FFAD7
:1041C0008BF000F01DF85F4638B2B9F1000F06D051
:1041D00000EB4001D9F8002006EBC1014A6000EB7A
:1041E0004000002106EBC00041823946846000E0B7
:1041F000009908B205B0BDE8F08F00000000000093
:1042000010B540F2240200EB4001C2F2004202EB82
:10421000C10452F8310018B105F00EFF00202060F3
:1042200042F2EE610020C0F60101207560826060FC
:10423000A0600868E0608888208210BD000000004F
:104240002DE9F04F85B031B3466804463088B0F5AB
:10425000807F4BD13079062848D17079042845D128
:104260007088082842D10D4608463146FDF788FC83
:10427000A946D6F80E100123049159F8040F80B115
:10428000B269171AA1EB0000B0FA80F04FEA501A99
:1042900018BF012708E018A00DF0C0FC05B0BDE86C
:1042A000F08F4FF0000A012706F1080B0DF11008FE
:1042B000284641465A46002F18BF022300F014FA40
:1042C000002F08BFBAF1000F10D1F088B0F5807F41
:1042D0000CD105F12E010220039028465A460B46C8
:1042E000CDE9009BCDF8088000F05EF9204605F08E
:1042F000A3FE05B0BDE8F08F6E6574696620213DB0
:10430000204E554C4C00000070B584B005460C465C
:1043100010682946164600F067FD20B142F2E863B6
:10432000C0F6010313E0306800F0F001E0291AD173
:1043300071780120ADF808005E208DF80A0001F0C8
:104340007F008DF80B00708802ABADF80C0005F112
:104350002E024FF4006000902846214600F054FAE7
:1043600040B204B070BD81B24FF6A96291421EBF47
:10437000D5E90112484010EA02003FD140F2A01CEA
:1043800040F22401C2F2004CC2F200419CF800202D
:1043900002EB420301EBC303187D02280BD398689C
:1043A000A84208D130685B68984204D1284621466B
:1043B00000F02EF8D4E701F11402002104E000BF60
:1043C000013118320A2913D010780228F8D352F894
:1043D0000C0CA842F4D1306852F8103C9842EFD14E
:1043E000CAB28CF800102846214600F011F8B7E751
:1043F00028463146224600F043F8B1E72E4656F8EB
:104400000C0F0028BAD1FC20AAE700000000000031
:10441000F0B581B002EB420240F22403C2F2004345
:104420000C4603EBC2060546374617F8142F022A3E
:1044300017D1708AB0F58E7F07D9311D284600F05C
:10444000FFF870B9032038700BE0B0F5877F08D310
:10445000311D06F10C02284600F0FAF808B90320D5
:10446000387005F12E0206F10C034FF40060009045
:104470002846214600F0C8F901B0F0BD0000000058
:104480002DE9F04F81B005460F46086829461446CD
:1044900000F0AAFC08B1F02008E03968F02029B14A
:1044A000002F1CBF01F0F001E02903D140B201B0A0
:1044B000BDE8F08F012138462A46FFF705FE064683
:1044C000002831D45FFA86F940F224084FEA490007
:1044D000C2F2004850FA86F008EBC00A1AF814BF7E
:1044E000BBF1000F07D109EB490001218AF8001048
:1044F00008EBC0008560002C18BFBBF1000F15D180
:104500002846394600F09CF860B9BBF1000F09D08D
:104510009AF80010012905D109EB4901002208EBA6
:10452000C1014A821CB9C1E73046BFE7FF209AF8B3
:104530000010022914D309EB490040F2A011C2F285
:10454000004105F12E0208EBC0000E7000F10C03D3
:104550004FF4006000902846214600F055F9A5E789
:104560000129A3D134B12046017B490606D4006855
:104570000028F9D1204605F00FFE06E00E204FF48A
:104580002071224605F03CFC04465CB109EB490170
:1045900058F8310008EBC10508B105F04DFD0020C9
:1045A0002C6083E7FF2081E72DE9F04F81B0904632
:1045B0008A4606460E201C214FF420721C4605F048
:1045C00013FBA8B307460D98DDE90AB5D7F80490A8
:1045D00001F09AFEA9F806003946A0885246A9F8CB
:1045E0000C0043462068C9F808002868C9F8120082
:1045F000A888A9F81600DBF80000C9F80E000C988E
:104600000068C9F8180040F20010C0F20800C9F8AC
:10461000000040F20640A9F8040040F606000090B1
:10462000304600F0F1F8384605F006FD002000E0C5
:10463000FF2040B201B0BDE8F08F00000000000094
:1046400080B542F2E862C0F6010200F001F880BDD8
:1046500080B584B000F12E0342F2EE6E029101218A
:104660000391194600F1040CC0F6010ECDE900CE0D
:10467000FFF79AFF04B080BDF0B581B040F224008E
:104680000024C2F20040022600F11405042706E0CF
:104690002046FFF7B5FD013418350A2C20D02878C4
:1046A0000028F8D035F8021C4A1C25F8022C91B2DB
:1046B0008B084A2BECD8012801D10529E8D2012822
:1046C00005D004280AD00328E5D12F70E3E755F878
:1046D0000C0CA5F11001FFF7B3FFDCE72E70DAE751
:1046E00001B0F0BD00000000F0B581B049B1054651
:1046F00008680E4628B129461F46144600F074FB90
:1047000008B101B0F0BD306800F0F000E028F8D04A
:10471000304639462A46FFF7D7FC0028F1D400EB93
:10472000400140F22402C2F20042022302EBC10027
:1047300052F8316000210375002E85602368C36044
:10474000A38841820382DCD0016005F12E024FF480
:104750000060009028463146234600F055F8304668
:1047600005F06AFC01B0F0BD70B5044640890F2821
:104770003FD360680D46E17B868919B995F83810FA
:104780000131E1730178CA0716D0012908D14178B7
:1047900091B980785E280FD1607B40F010000AE06C
:1047A00042F2E8610622C0F60101FBF79DFE18B94E
:1047B000607B40F008006073B6F5C16F10D0082E22
:1047C00017D195F83500000713D50E21204605F0C6
:1047D000F3FC70B92046294600F016FC002070BD9D
:1047E00095F83500000704D50E21204605F0E4FCBD
:1047F00020B1204605F020FC002070BD204629464F
:10480000FFF71EFD002070BD2DE9F041804606989F
:104810001F4616460C4601F077FD05460E21204640
:1048200005F0A6F918B1FE2040B2BDE8F08160683D
:104830008581B9888180396801603168C0F80610C7
:10484000B18841814046D8F818202146904740B2AF
:10485000BDE8F0810000000010B50446042003F01C
:1048600067FAB0B144F24741E18644F2093145F6B6
:10487000A1422062C0F60001C0F60002C4E90512A0
:1048800004F12E010160204601F052F9002040B2EF
:1048900010BDFF2040B210BD40F628150446C2F2FC
:1048A000014501E00BF0F4FD6421284607F034FADD
:1048B0000028F9D00BF0C0FD204601F0BDF90646F6
:1048C0000BF0E6FD002EEFD00BF0B6FD226930466E
:1048D000214690470028E5D0304605F0ADFBE1E7E2
:1048E000F0B581B0002861D0846905460E46B4F168
:1048F000FF3F07DC07F008FAAC69B4F1FF3F1ADDAF
:1049000007F01EFA204600F0A3F800284ED0054616
:1049100007F0FAF9042E15D8DFE806F003171D2575
:10492000290029894A1C002113B22A81022BB8BF11
:104930000121F9B938E00EB9611EA96107F000FA4A
:1049400001B0F0BD0121A9B92EE0298901392981E1
:10495000002179B928E0698901226A81B1FA81F1DF
:10496000490939B920E00021698119B91CE0012108
:10497000A981C9B1A97BB9B1B5F9081000276E8921
:10498000AD890029C8BF0127002E18BF0126002DC0
:1049900018BF012507F0D4F92046394632462B4688
:1049A00007F00EF801B0F0BD07F0CAF901B0F0BD94
:1049B000B0B541F200050446C1B2C4F20105284673
:1049C0000BF042FB40F2077128460BF0ADFB0028CC
:1049D000F8D02046B0BD0000F0B583B00C460546C7
:1049E00007F092F901AF064602A928463A4600F0C0
:1049F0001FF8304607F0A4F9029920463A4600F025
:104A000003F803B0F0BD000010B513680C463BB1CD
:104A100018B1184605F010FB02E0106804F0D4F954
:104A2000002C08BF10BD204604F072FB10BD000032
:104A3000436813600022426003680B6002607047A5
:104A400080B50BF079FB01F04BF880BD0000000051
:104A500080B50AF035FE002818BF80BD40F29C10DA
:104A60000921C2F200400160002080BD000000006A
:104A7000F0B5D0F820E0D0F824C000230F2700259F
:104A800004E000BF01350433082D0CD022FA05F6EE
:104A9000F607F7D007FA03F62EEA060601FA03F442
:104AA00046EA040EEEE7082300240F2504E000BFC9
:104AB00001330434102B0CD022FA03F6F607F7D09A
:104AC00005FA04F62CEA060701FA04F647EA060C92
:104AD000EEE7C0F820E0C0F824C0F0BD0000000000
:104AE0008162704700000000C16270470000000052
:104AF0002DE9F0430468D0F80CC04FF0000E4FF0E1
:104B00000308002605E000BF01360EF1020E102E4C
:104B100012D023FA06F7FF07F6D008FA0EF724EAB8
:104B2000070901FA0EF42CEA070702FA0EF544EA27
:104B3000090447EA050CE7E70460C0F80CC0BDE8CB
:104B4000F083000000000000B0B5012902D14168E7
:104B5000194301E04168994341600021D0F808C041
:104B60004FF0030E002403E001340231102C0CD06E
:104B700023FA04F5ED07F7D00EFA01F52CEA050C3F
:104B800002FA01F54CEA050CEEE7C0F808C0B0BD2A
:104B900080B50A46032100F08FF880BD00000000B8
:104BA0002DE9F04383B040F2F4153C23C2F20045F6
:104BB0000446AE68327803EA8207142F17D360895F
:104BC000042814D360680078082810D168698846E2
:104BD00000F0F001E0290AD0296800F005F930B9A9
:104BE0002089082803D3204600F0AEF828B12046DB
:104BF00005F022FA03B0BDE8F08307F10E09204664
:104C0000494604F0B5FF40B32089384481B281425F
:104C10001ED10E204FF4207204F0E6FFC0B1814691
:104C2000408907F1080181420FD8D9F804003146C4
:104C30003A46FBF727FC4846394605F0BDFA20B94D
:104C40004846214605F0F0F870B3484605F0F4F9FF
:104C50000A2040B10A28CAD0CCE72046494605F0D0
:104C6000ABFA0028C3D120463946666804F080FFBD
:104C70000028BCD1606855F8141FFF22FF23C160D3
:104C800055F8041C016100213170E17371800272DA
:104C90000022418101200091294601902046CDF853
:104CA000088000F0A5FAA2E7204605F0C5F900202B
:104CB0004C460028CED1D6E72DE9F04385B00689D1
:104CC0000546904689461C2E4FF4207228BF1C26AC
:104CD00006F1080081B2222004F086FF30B3476855
:104CE000082329463246044687F80090D5F80490F8
:104CF00087F801804FF00008C7F8048005F014F928
:104D0000D9F80C00049004A800F0BEFB58B1A7F835
:104D100002800121CDE9008104AA0021FF23029035
:104D2000204600F065FA204605F086F905B0BDE89A
:104D3000F08300000000000080B50A460B21FFF759
:104D4000BBFF80BD00000000F0B581B0D8B10446C3
:104D50000027002665896068294602F0D1FE3044AC
:104D6000010C11FA80F615F00100B7FA87F031BA9C
:104D700018BF0E0C246818BF4709002CEAD1B7FAF7
:104D800087F0400901E00120002631BA002808BF61
:104D90000E0CF04380B201B0F0BD00000000000036
:104DA00080B582B002F078FEFCF72AFA1420009059
:104DB00045F6213040F2102CC0F6000008A18022F8
:104DC0000023C2F2004CCDF804C00CF0D5FB40F239
:104DD000E410C2F2004000680BF0EEFC02B080BDAF
:104DE0006C65640000000000421C022A01D2012010
:104DF000704791F8352092070AD54A68824207D059
:104E000089684240114203D1CA4388439042EED0A0
:104E100000207047000000002DE9F04F8DB0D0F861
:104E200004B004469BF8000000F00F00052829D1CB
:104E30006089132840F2CE80BBF80600B1F82C80C0
:104E400015460F4601F060FA2189A1F114063104DC
:104E500000F0C580A8F1140100F400526FF35F3038
:104E60000B9001EB51714FF01409C9104FF0000A7B
:104E7000C8000292CDE9047580B203910790CDF885
:104E800018B035E0FA25ABE0DDF810B00B9F089BB9
:104E9000D144BBF82C00A0F1140138466FF35F3009
:104EA000994200F50052B8BF10460299002918BF78
:104EB000104601F029FA099EF0800C98143080B257
:104EC00001F022FA7080DBF8143058464146059A0A
:104ED000002575819847404605F0AEF80A9E0C986B
:104EE000361ADDF818B03004039807440B9777D0D2
:104EF0000E2014214FF4207204F076FE002873D0A7
:104F0000B7B28046079814220546B84288BF3D468E
:104F1000D8F804005946FBF7B5FA002DD8F804007C
:104F20000A960C95CDE90870AED045F6B127AB4690
:104F3000C0F6000703E000BF5FEA0B40A4D01FFAF1
:104F40008BF16089A0EB090A1FFA8AF0814238BF11
:104F5000DA465FEA0A4029D000F0FAFB80B3054642
:104F600061681FFA89F04122084400901FFA8AF113
:104F700000202B46019104F0DBFEF0B106462046EE
:104F800005F00AF940463146C5E9047404F0ECFE28
:104F9000ABEB0A0B5FEA0B404FF000001CBF24682C
:104FA0004FF000090B2811D1C6E700BF24680B2081
:104FB0004FF000090B2809D1BEE7284600F0D0FBCE
:104FC000404605F039F808200B28B5D00028B3D0AA
:104FD000FF2505E005A00CF021FEFA2500E00025E4
:104FE00068B20DB0BDE8F08FFF25F9E76970345F56
:104FF0006672616728293A207062756620746F6F47
:105000002073686F727400002DE9F047456804460C
:105010002A7802F0F000402811D168880E463C2121
:1050200001EA820A01F070F921890746884203D219
:105030002046394605F07CF86089504505D2204667
:1050400004F0FAFF0020BDE8F087BAF1140FF6D3A0
:1050500020898742F3D8296940F2F419C2F2004945
:1050600001F0F002E02AE868C9F81000C9F814104D
:1050700006D196F83500C00720D14FF0000823E094
:10508000304600F09DF8B046F0B999F814004FF0A2
:1050900000087F2818D040F2C050C2F201400768D3
:1050A0001FB911E03F68002FE7D0B742FAD0384669
:1050B00000F086F80028F5D0B84605E07068B046E4
:1050C000002808BF4FF00008B8F1000F10D1687A2F
:1050D0004FF0000811280BD105EB0A004088B0F50D
:1050E0008840B0FA80F04FEA501008BFB04600E0A8
:1050F000002070B9D9F8100058B13146FFF774FE9E
:1051000000289CD1D9F8100000F0F000E0283FF40E
:1051100096AFB8F1000F3FF492AFE8886FF0C0018E
:10512000084206D0204600F0D3F8002845D00446B7
:10513000456828783C21C9E9008601EA8000A9F881
:105140000C0020465146C9F8085005F035F8687A39
:10515000012808D006280BD011280ED12046314650
:105160000AF0AEFB20E020463146FFF719FD1BE0B8
:105170002046314607F048FC16E0D9F814004146B5
:10518000FFF732FE68B9D9F8140000F0F000E0280B
:1051900007D02046514604F0A7FF02212046FFF722
:1051A000F7FC204604F048FF0020C9F80800C9E9D0
:1051B0000400C9E90000A9F80C000020BDE8F08750
:1051C00080B5014690F83500C0070DD04A685AB145
:1051D00040F2F410C2F200404069904202D0FFF762
:1051E00003FE08B1012080BD002080BD000000004A
:1051F000B0B584B0DDF828C0DDE9084E42B129B170
:105200000D68002D08BF0CF1040101E00CF1040150
:10521000CDE9004ECDF808C000F002F804B0B0BDF2
:105220002DE9F04381B004464AB188461421204656
:1052300015461F4604F09CFC30B1FE2042E0608918
:1052400014282BD2FE203DE06668099808997072F8
:10525000286830614520307020893772717001F004
:1052600053F840F20C277080C2F200474FF000095B
:10527000A6F80690388801F047F842F2F461B8F1D8
:10528000000FC0F6010118BF41463A88B080A6F869
:105290000A90501C38800868F06003E060686D4632
:1052A000006900900A99888D38B12289824204D918
:1052B00020462A46FFF7B0FD04E04B690846214628
:1052C0002A46984740B201B0BDE8F08300000000D4
:1052D0002DE9F04F81B047680546387800F00F009F
:1052E00005280DD1F88801F00FF879888046084626
:1052F00001F00AF839783C2202EA810B584507D2BE
:10530000284604F099FE0025284601B0BDE8F08F3C
:105310000646284604F06CFD40F20E248146C2F297
:10532000004421880844152809D33846494600F02E
:105330005BFB0028E4D0208848441428E0D840F6DD
:105340003410C2F20140046804B3F86802E000BF00
:105350002468DCB161698142FAD1A1693A6991425C
:10536000F6D1A189BA889142F2D1F88800F0CCFF39
:10537000C00412D1E08900F0C7FFC0040DD004F1D1
:10538000080014223946FBF77DF806E03846494606
:1053900000F0BAFA04460028B2D0F8884FEAC807ED
:1053A000A6EB0B0610F0200A09D1B0B210FA87F173
:1053B00088B2884252D14FF6EB7188424ED8012014
:1053C000294680EA5A12204600F0D2F9411C45D005
:1053D00040F20E22BAF1000FC2F20042924611884A
:1053E0004944118005D1A17FF219A28341F0010146
:1053F000A17701284FF000057FF486AF6068142282
:10540000A18B476801F1140804F1080138463E6891
:10541000FBF738F81FFA88F000F076FFFD807D81F9
:105420006568788066B100BF14213046776804F063
:10543000C3FE2846314604F097FC3E68002EF3D1A7
:1054400040F63410C2F20140006884420FD000BF21
:1054500068B101460068A042FAD109E060680028FE
:105460007FF44EAF0021204600F03AFA48E70021D1
:10547000204600F035FA284604F0BAFCBAF80010CD
:10548000081AAAF800003FE780B540F2C051C2F206
:10549000014100BF0968C1B191F8352002F0050350
:1054A000052BF7D14B68002BF4D0D0F800C0D1F811
:1054B00008E083EA0C0313EA0E0F04D09207E9D444
:1054C000CA689445E6D1084680BD40F2BC51C2F29C
:1054D0000141096861B191F8352002F00502052A01
:1054E00006D14A6832B100787F3818BF084680BDBF
:1054F000002080BD0021084680BD000000000000A3
:105500002DE9F04F89B090F8009006460C46FAF766
:10551000A3FFD0F8008018F80910202940F09E80E1
:1055200005A9019401F10C0203920A46029000BF02
:10553000B9F1300F04920FD1304610F8019F49F0B5
:10554000200178290ED116F8029F4FF0100B4FF072
:10555000010A01250CE000BF4FF00A0B01254FF0B6
:10556000000A05E04FF0080B4FF0000A0646002540
:105570000136002718F80940202C0FD109F0F80057
:10558000E943303818BF012001421DD107FB0B90C1
:1055900016F8019BA0F13007ECE700BFBAF1000F4D
:1055A00012D02046FBF764FE00060DD520076FF0F1
:1055B000600058BF6FF04000484416F8019B0A3065
:1055C00040EA0717D6E700BFB9F12E0F0FD1DDE98A
:1055D0000302824242D242F8047B029896F800907D
:1055E000D0F8008018F809002028A1D036E0B9F1E1
:1055F000000F01D0E00731D005A80499081A012155
:1056000001EBA001042933D80020DFE801F0393193
:10561000030D1C000020B0EB176F31D10599FF2955
:105620002ED847EA016723E00020B0EB174F27D1BF
:105630000599FF2924D80698FF280FD847EA016169
:1056400041EA004714E0059840EA0701FF2905D820
:105650000699FF2902D8079AFF2A03D9002009B02A
:10566000BDE8F08F47EA006040EA014040EA0227C7
:10567000019941B138460C4600F042FE20600120FD
:1056800009B0BDE8F08F012009B0BDE8F08F00003F
:105690002DE9F04F83B00DF108094CF6CD4B8E4645
:1056A0000068029009F1030000900020CCF6CC4B7A
:1056B0000DF1050C8A4699F800300027D9B21E4634
:1056C000FCB2A1FB0B3509294FEAD5033D4607F192
:1056D000010703EB8308A6EB480646F030060CF8FA
:1056E0000460EBD8390689F8003015D013465746C8
:1056F0009042C8BF034600BF83421DD0E9B20130CB
:105700000029A5F101051CF8014007F8014BF3D170
:10571000904204DB16E000BF5746904212DABA46C8
:105720002E2101300AF8011B0099894509F1010970
:10573000C1D10020387001E04FF0000E704603B078
:10574000BDE8F08F4FF0000EF8E700000000000009
:1057500080B5052002F068FC80BD0000000000005C
:1057600080B50146052002F00FFC80BD000000005E
:105770002DE9F04F81B04C688B4681469046618898
:10578000084600F0C1FD21783C2202EA81029042E5
:1057900014D3E188841A084600F0B6FDC100DBF896
:1057A00004A08AB2002012FA84F3CAF8000098B26A
:1057B000AAF804109842AAF8063004D04FF0FF303F
:1057C00001B0BDE8F08FD9F80430B3FA83F14FEAA5
:1057D0005117CBB15D684FF0000C4FF0010EAC8853
:1057E000A24224D20026CAF80030D6B3A0424FF01D
:1057F000FF304AD8F1888A4247D3914218BF4FF010
:10580000000EC6F800B002E04FF0010E00263FB1D6
:1058100066B3F088904218BF4FF0000EC6F800B093
:10582000B8F1000F27D0BEF1000F31D136E00021D2
:10583000A3B29A42C2D0EC882E46A242BED319B17E
:10584000C988994218BFE6463368B3FA83F1002B42
:105850004FEA5117DBD05D683146AC88A242E7D2EF
:10586000C1E7A042AAD8C9F804B0D0E7C9F804B08B
:10587000B8F1000FD7D1BEF1000F4FF000001CBFF0
:1058800099F81E1011F0010102D101B0BDE8F08FAE
:10589000D9F8040010B14068808818B1002001B028
:1058A000BDE8F08FDAF80010B1FA81F000294FEA74
:1058B0005010EAD04968BAF806208B889A42E4D1A1
:1058C0000A68B2FA82F0002A4FEA5010DDD052681E
:1058D000C988938899421146F2D0D6E700000000AB
:1058E00080B540F6341C0246C2F2014CDCF80030B0
:1058F000834208BF6146006808600420114602F038
:1059000043FB80BD0000000070B5044604200E4635
:1059100002F08AFB054638B92046314600F064F8AB
:10592000B0421BDA0025FDB128460021C5E903116C
:10593000C5E90511E961C5E9001140F8081F0F210B
:10594000E97740F63411C2F201410A682A600D601D
:1059500014222146FAF796FD284670BD042002F075
:1059600063FB0546002DDFD1002070BD0000000064
:105970002DE9F041476804468846786882880AB174
:10598000002612E000686060786804F108011422C3
:10599000FAF778FD01213846FFF7CEF9384604F0D2
:1059A00027FA0646384604F047FB676867B100BF30
:1059B00078680568384604F01BFA0644384604F057
:1059C0003BFB002D2F46F3D120464146FFF788FFD1
:1059D000B0B240F20E21C2F200410A88921B0A8046
:1059E000BDE8F081000000002DE9F04F81B040F6E5
:1059F0003418894683464FF0000AC2F2014800BFBE
:105A0000D8F8003043B3DBF80CC000270021002495
:105A100000200EE007F10107D0B1DE7FC57FAE4266
:105A20009CBF184621461A68002A18BF1C46134618
:105A300015D05D696545EDD19D69DBF81060B54213
:105A4000E8D19E89BBF80450AE42E3D1EBE700BF3A
:105A500018462146E7E700BF00200021002710B1CB
:105A6000FFF786FF8244022F01DBCA45C8DB5046A0
:105A700001B0BDE8F08F0000B0B540F63410C2F2BE
:105A800001400068002808BFB0BD002406E000BF48
:105A900021460568FFF76CFF28463DB1C17F00290C
:105AA000F6D00139C17705680446F5E7B0BD0000BE
:105AB00010B50446406908B104F0BEFA2046FFF76D
:105AC0004FFE10BD0000000080B54FF4407004F0A0
:105AD00033F825200621002203F0FAFF80BD0000E4
